S01200005457495F4D61737465722E7372656353
S11300000C942A000C9447000C9447000C9447006D
S11300100C9447000C9447000C9447000C94470040
S11300200C9447000C9447000C9447000C94470030
S11300300C9447000C9447000C9447000C94470020
S11300400C9447000C9419010C9447000C9447003D
S11300500C94470011241FBECFE5D4E0DEBFCDBF12
S113006010E0A0E6B0E0E0E1F3E002C005900D92FC
S1130070A236B107D9F720E0A2E6B0E001C01D9294
S1130080A936B207E1F70E945A000C9486010C9439
S11300900000CF93DF931F92CDB7DEB7883411F001
S11300A0803221F489830E94F80089810F90DF91C6
S11300B0CF910895CF93DF9300D000D0CDB7DEB7B2
S11300C08FEF87BB18BA11BA0E94C800789400E079
S11300D010E080E2F82E90E1E92E2AEAD22E31E2F5
S11300E0C32E80B3809579F190B39F3FE9F78430B4
S11300F0D9F068F48130A1F0823029F5F982FA82CE
S113010062E0CE0101960E94D80012E00DC0803456
S113011079F08038B1F08032B1F40F5F08BB13C0BE
S11301201982DA8262E008C00E94D20088BB0BC048
S1130130F982EA820B8363E0CE0101960E94D80023
S113014002C018BA00E00E94CF0081111FC0809144
S1130150630080FF17C01123C9F0123041F4C98233
S113016062E0CE0101960E94D80013E00FC0133064
S113017069F462E0CE0101960E9403018A8188BB82
S113018010E004C00E94D2000E9449000000A9CFE0
S11301908CE080B98FEF83B984E086BF089586B779
S11301A08170089506B600FCFDCF8091600008952B
S11301B006B600FCFDCF60936400FC01208120930F
S11301C0650020FF08C01092630088EF80936000F0
S11301D085EA86BF0895FC01319625E630E0D90111
S11301E011968A2F821B861770F781918C93F8CF12
S11301F006B600FCFDCF1092630088EF8093600088
S113020085EA86BF089506B600FCFDCF2091630001
S113021020FD04C0809163008170089525E630E0DC
S1130220FC01D9018A2F821B8617A0F78D91819337
S1130230F9CF1F920F920FB60F9211242F933F9371
S11302408F939F93EF93FF9381B18832F9F040F439
S11302508031D1F08831D1F0883009F047C014C022
S1130260803479F128F4883309F040C085EA42C02B
S11302708035E1F08835D1F583B1E0916200F0E09A
S1130280EB59FF4F80832BC010926200E091620013
S113029080916400E81718F581E08E0F8093620066
S11302A0F0E0EB59FF4F808183B917C0E091620001
S11302B081E08E0F8093620083B1F0E0EB59FF4F31
S11302C080832091620030E08091640090E0019787
S11302D02817390714F485EC0DC085E80BC080910C
S11302E0630081608093630084E904C081B18093DA
S11302F0600084E086BFFF91EF919F918F913F91C1
S11303002F910F900FBE0F901F901895F894FFCF68
S1050310F800EF
S9030000FC
